{
  "address": "0x6d42A618a0675519Ac4d143aF915065d7F5772B9",
  "abi": [
    {
      "inputs": [
        {
          "internalType": "address",
          "name": "_oracleAddress",
          "type": "address"
        }
      ],
      "stateMutability": "payable",
      "type": "constructor"
    },
    {
      "inputs": [],
      "name": "AlreadyCompleted",
      "type": "error"
    },
    {
      "inputs": [],
      "name": "InvalidAmount",
      "type": "error"
    },
    {
      "inputs": [],
      "name": "InvalidLength",
      "type": "error"
    },
    {
      "inputs": [
        {
          "internalType": "uint256",
          "name": "projectId",
          "type": "uint256"
        },
        {
          "internalType": "uint256",
          "name": "milestoneIndex",
          "type": "uint256"
        }
      ],
      "name": "InvalidMilestone",
      "type": "error"
    },
    {
      "inputs": [
        {
          "internalType": "address",
          "name": "contractor",
          "type": "address"
        }
      ],
      "name": "OnlyContractor",
      "type": "error"
    },
    {
      "inputs": [],
      "name": "TransferFailed",
      "type": "error"
    },
    {
      "inputs": [
        {
          "internalType": "address",
          "name": "caller",
          "type": "address"
        }
      ],
      "name": "Unauthorized",
      "type": "error"
    },
    {
      "anonymous": false,
      "inputs": [
        {
          "indexed": true,
          "internalType": "uint256",
          "name": "projectId",
          "type": "uint256"
        },
        {
          "indexed": true,
          "internalType": "uint256",
          "name": "milestoneIndex",
          "type": "uint256"
        },
        {
          "indexed": false,
          "internalType": "string",
          "name": "ipfsHash",
          "type": "string"
        }
      ],
      "name": "EvidenceSubmitted",
      "type": "event"
    },
    {
      "anonymous": false,
      "inputs": [
        {
          "indexed": true,
          "internalType": "uint256",
          "name": "projectId",
          "type": "uint256"
        },
        {
          "indexed": true,
          "internalType": "uint256",
          "name": "milestoneIndex",
          "type": "uint256"
        },
        {
          "indexed": false,
          "internalType": "uint256",
          "name": "amount",
          "type": "uint256"
        }
      ],
      "name": "MilestoneReleased",
      "type": "event"
    },
    {
      "anonymous": false,
      "inputs": [
        {
          "indexed": true,
          "internalType": "uint256",
          "name": "projectId",
          "type": "uint256"
        },
        {
          "indexed": true,
          "internalType": "address",
          "name": "contractor",
          "type": "address"
        },
        {
          "indexed": false,
          "internalType": "uint256",
          "name": "budget",
          "type": "uint256"
        }
      ],
      "name": "ProjectCreated",
      "type": "event"
    },
    {
      "inputs": [
        {
          "internalType": "address",
          "name": "_contractor",
          "type": "address"
        },
        {
          "internalType": "uint256[]",
          "name": "_milestoneAmounts",
          "type": "uint256[]"
        },
        {
          "internalType": "string[]",
          "name": "_milestoneDescriptions",
          "type": "string[]"
        }
      ],
      "name": "createProject",
      "outputs": [
        {
          "internalType": "uint256",
          "name": "",
          "type": "uint256"
        }
      ],
      "stateMutability": "payable",
      "type": "function"
    },
    {
      "inputs": [],
      "name": "funder",
      "outputs": [
        {
          "internalType": "address",
          "name": "",
          "type": "address"
        }
      ],
      "stateMutability": "view",
      "type": "function"
    },
    {
      "inputs": [],
      "name": "nextProjectId",
      "outputs": [
        {
          "internalType": "uint256",
          "name": "",
          "type": "uint256"
        }
      ],
      "stateMutability": "view",
      "type": "function"
    },
    {
      "inputs": [],
      "name": "oracleAddress",
      "outputs": [
        {
          "internalType": "address",
          "name": "",
          "type": "address"
        }
      ],
      "stateMutability": "view",
      "type": "function"
    },
    {
      "inputs": [
        {
          "internalType": "uint256",
          "name": "",
          "type": "uint256"
        }
      ],
      "name": "projects",
      "outputs": [
        {
          "internalType": "address",
          "name": "contractor",
          "type": "address"
        },
        {
          "internalType": "uint256",
          "name": "totalBudget",
          "type": "uint256"
        },
        {
          "internalType": "uint256",
          "name": "fundsReleased",
          "type": "uint256"
        },
        {
          "internalType": "uint256",
          "name": "milestoneCount",
          "type": "uint256"
        }
      ],
      "stateMutability": "view",
      "type": "function"
    },
    {
      "inputs": [
        {
          "internalType": "uint256",
          "name": "_projectId",
          "type": "uint256"
        },
        {
          "internalType": "uint256",
          "name": "_milestoneIndex",
          "type": "uint256"
        },
        {
          "internalType": "bool",
          "name": "_verdict",
          "type": "bool"
        }
      ],
      "name": "releaseMilestone",
      "outputs": [],
      "stateMutability": "nonpayable",
      "type": "function"
    },
    {
      "inputs": [
        {
          "internalType": "uint256",
          "name": "_projectId",
          "type": "uint256"
        },
        {
          "internalType": "uint256",
          "name": "_milestoneIndex",
          "type": "uint256"
        },
        {
          "internalType": "string",
          "name": "_ipfsHash",
          "type": "string"
        }
      ],
      "name": "submitEvidence",
      "outputs": [],
      "stateMutability": "nonpayable",
      "type": "function"
    },
    {
      "stateMutability": "payable",
      "type": "receive"
    }
  ],
  "transactionHash": "0x7dbb2e88c08065f308b26da8f516c2ec205922212071e72366330ed9516b29a0",
  "args": [
    "0x148ba9e6f4600094f3a680b935116dff42901212"
  ],
  "numDeployments": 2,
  "solcInputHash": "72101f09c43839666a49e55b02aa59ba",
  "bytecode": "0x60c0604052604051610d25380380610d2583398101604081905261002291610037565b6001600160a01b03166080523360a052610067565b60006020828403121561004957600080fd5b81516001600160a01b038116811461006057600080fd5b9392505050565b60805160a051610c8c61009960003960008181609201526103e80152600081816101bf01526102020152610c8c6000f3fe6080604052600436106100745760003560e01c80635bb6b4211161004e5780635bb6b4211461016c5780638b69fa0a1461018d578063a89ae4ba146101ad578063e935b7b1146101e157600080fd5b8063041ae88014610080578063107046bd146100d1578063317082351461014a57600080fd5b3661007b57005b600080fd5b34801561008c57600080fd5b506100b47f000000000000000000000000000000000000000000000000000000000000000081565b6040516001600160a01b0390911681526020015b60405180910390f35b3480156100dd57600080fd5b506101206100ec366004610780565b600160208190526000918252604090912080549181015460028201546003909201546001600160a01b039093169290919084565b604080516001600160a01b03909516855260208501939093529183015260608201526080016100c8565b34801561015657600080fd5b5061016a610165366004610799565b6101f7565b005b61017f61017a366004610942565b6103db565b6040519081526020016100c8565b34801561019957600080fd5b5061016a6101a8366004610a1b565b61064f565b3480156101b957600080fd5b506100b47f000000000000000000000000000000000000000000000000000000000000000081565b3480156101ed57600080fd5b5061017f60005481565b336001600160a01b037f000000000000000000000000000000000000000000000000000000000000000016146102475760405163472511eb60e11b81523360048201526024015b60405180910390fd5b60008381526001602052604081206004810180549192918590811061026e5761026e610a61565b90600052602060002090600402019050816003015484106102ac57604051630b0d89bb60e01b8152600481018690526024810185905260440161023e565b600281015460ff16156102d25760405163195332a560e01b815260040160405180910390fd5b60028101805460ff1916600190811790915583151590036103d4576002808201805461ff00191661010017905560018201549083018054600090610317908490610a8d565b9091555050815460018201546040516000926001600160a01b031691908381818185875af1925050503d806000811461036c576040519150601f19603f3d011682016040523d82523d6000602084013e610371565b606091505b5050905080610393576040516312171d8360e31b815260040160405180910390fd5b84867fd33fcd27cbfb73a2d9058c968b560ccb306500bf536133802048489ecc7355e984600101546040516103ca91815260200190565b60405180910390a3505b5050505050565b6000336001600160a01b037f000000000000000000000000000000000000000000000000000000000000000016146104285760405163472511eb60e11b815233600482015260240161023e565b815183511461044a5760405163251f56a160e21b815260040160405180910390fd5b6000805b84518110156104905784818151811061046957610469610a61565b60200260200101518261047c9190610a8d565b91508061048881610aa6565b91505061044e565b508034146104b15760405163162908e360e11b815260040160405180910390fd5b600080548152600160208190526040822080546001600160a01b0319166001600160a01b03891617815590810183905585516003820155905b85518110156105eb57816004016040518060a0016040528087848151811061051457610514610a61565b6020026020010151815260200188848151811061053357610533610a61565b60209081029190910181015182526000828201819052604080840182905280518084019091528181526060909301929092528354600181018555938252902081519192600402019081906105879082610b48565b50602082015160018201556040820151600282018054606085015115156101000261ff00199315159390931661ffff1990911617919091179055608082015160038201906105d59082610b48565b50505080806105e390610aa6565b9150506104ea565b50856001600160a01b03166000547f1b9d0946c0a6f3b3a57782ad25a4553bd5bcf1f1a252068eafc757670aad573a8460405161062a91815260200190565b60405180910390a360008054908061064183610aa6565b909155509695505050505050565b600083815260016020526040902080546001600160a01b0316331461069557805460405163e96b27a360e01b81526001600160a01b03909116600482015260240161023e565b806003015483106106c357604051630b0d89bb60e01b8152600481018590526024810184905260440161023e565b8060040183815481106106d8576106d8610a61565b600091825260209091206002600490920201015460ff161561070d5760405163195332a560e01b815260040160405180910390fd5b8181600401848154811061072357610723610a61565b906000526020600020906004020160030190816107409190610b48565b5082847fd998ce0f89c38b0f93256f0b843a404a3a3c5055b75265623f7cb9c369a1dd62846040516107729190610c08565b60405180910390a350505050565b60006020828403121561079257600080fd5b5035919050565b6000806000606084860312156107ae57600080fd5b8335925060208401359150604084013580151581146107cc57600080fd5b809150509250925092565b634e487b7160e01b600052604160045260246000fd5b604051601f8201601f1916810167ffffffffffffffff81118282101715610816576108166107d7565b604052919050565b600067ffffffffffffffff821115610838576108386107d7565b5060051b60200190565b600082601f83011261085357600080fd5b813567ffffffffffffffff81111561086d5761086d6107d7565b610880601f8201601f19166020016107ed565b81815284602083860101111561089557600080fd5b816020850160208301376000918101602001919091529392505050565b600082601f8301126108c357600080fd5b813560206108d86108d38361081e565b6107ed565b82815260059290921b840181019181810190868411156108f757600080fd5b8286015b8481101561093757803567ffffffffffffffff81111561091b5760008081fd5b6109298986838b0101610842565b8452509183019183016108fb565b509695505050505050565b60008060006060848603121561095757600080fd5b83356001600160a01b038116811461096e57600080fd5b925060208481013567ffffffffffffffff8082111561098c57600080fd5b818701915087601f8301126109a057600080fd5b81356109ae6108d38261081e565b81815260059190911b8301840190848101908a8311156109cd57600080fd5b938501935b828510156109eb578435825293850193908501906109d2565b965050506040870135925080831115610a0357600080fd5b5050610a11868287016108b2565b9150509250925092565b600080600060608486031215610a3057600080fd5b8335925060208401359150604084013567ffffffffffffffff811115610a5557600080fd5b610a1186828701610842565b634e487b7160e01b600052603260045260246000fd5b634e487b7160e01b600052601160045260246000fd5b80820180821115610aa057610aa0610a77565b92915050565b600060018201610ab857610ab8610a77565b5060010190565b600181811c90821680610ad357607f821691505b602082108103610af357634e487b7160e01b600052602260045260246000fd5b50919050565b601f821115610b4357600081815260208120601f850160051c81016020861015610b205750805b601f850160051c820191505b81811015610b3f57828155600101610b2c565b5050505b505050565b815167ffffffffffffffff811115610b6257610b626107d7565b610b7681610b708454610abf565b84610af9565b602080601f831160018114610bab5760008415610b935750858301515b600019600386901b1c1916600185901b178555610b3f565b600085815260208120601f198616915b82811015610bda57888601518255948401946001909101908401610bbb565b5085821015610bf85787850151600019600388901b60f8161c191681555b5050505050600190811b01905550565b600060208083528351808285015260005b81811015610c3557858101830151858201604001528201610c19565b506000604082860101526040601f19601f830116850101925050509291505056fea2646970667358221220315ed59ceca3992d0df992349b3f23e212dd7dbc5fa14290b7fbbae85bf50ab864736f6c63430008140033",
  "devdoc": {
    "kind": "dev",
    "methods": {},
    "version": 1
  },
  "userdoc": {
    "kind": "user",
    "methods": {},
    "version": 1
  },
  "storageLayout": {
    "storage": [
      {
        "astId": 53,
        "contract": "contracts/OpticGov.sol:OpticGov",
        "label": "nextProjectId",
        "offset": 0,
        "slot": "0",
        "type": "t_uint256"
      },
      {
        "astId": 58,
        "contract": "contracts/OpticGov.sol:OpticGov",
        "label": "projects",
        "offset": 0,
        "slot": "1",
        "type": "t_mapping(t_uint256,t_struct(Project)51_storage)"
      }
    ],
    "types": {
      "t_address": {
        "encoding": "inplace",
        "label": "address",
        "numberOfBytes": "20"
      },
      "t_array(t_struct(Milestone)38_storage)dyn_storage": {
        "base": "t_struct(Milestone)38_storage",
        "encoding": "dynamic_array",
        "label": "struct OpticGov.Milestone[]",
        "numberOfBytes": "32"
      },
      "t_bool": {
        "encoding": "inplace",
        "label": "bool",
        "numberOfBytes": "1"
      },
      "t_mapping(t_uint256,t_struct(Project)51_storage)": {
        "encoding": "mapping",
        "key": "t_uint256",
        "label": "mapping(uint256 => struct OpticGov.Project)",
        "numberOfBytes": "32",
        "value": "t_struct(Project)51_storage"
      },
      "t_string_storage": {
        "encoding": "bytes",
        "label": "string",
        "numberOfBytes": "32"
      },
      "t_struct(Milestone)38_storage": {
        "encoding": "inplace",
        "label": "struct OpticGov.Milestone",
        "members": [
          {
            "astId": 29,
            "contract": "contracts/OpticGov.sol:OpticGov",
            "label": "description",
            "offset": 0,
            "slot": "0",
            "type": "t_string_storage"
          },
          {
            "astId": 31,
            "contract": "contracts/OpticGov.sol:OpticGov",
            "label": "amount",
            "offset": 0,
            "slot": "1",
            "type": "t_uint256"
          },
          {
            "astId": 33,
            "contract": "contracts/OpticGov.sol:OpticGov",
            "label": "isCompleted",
            "offset": 0,
            "slot": "2",
            "type": "t_bool"
          },
          {
            "astId": 35,
            "contract": "contracts/OpticGov.sol:OpticGov",
            "label": "isReleased",
            "offset": 1,
            "slot": "2",
            "type": "t_bool"
          },
          {
            "astId": 37,
            "contract": "contracts/OpticGov.sol:OpticGov",
            "label": "evidenceIpfsHash",
            "offset": 0,
            "slot": "3",
            "type": "t_string_storage"
          }
        ],
        "numberOfBytes": "128"
      },
      "t_struct(Project)51_storage": {
        "encoding": "inplace",
        "label": "struct OpticGov.Project",
        "members": [
          {
            "astId": 40,
            "contract": "contracts/OpticGov.sol:OpticGov",
            "label": "contractor",
            "offset": 0,
            "slot": "0",
            "type": "t_address"
          },
          {
            "astId": 42,
            "contract": "contracts/OpticGov.sol:OpticGov",
            "label": "totalBudget",
            "offset": 0,
            "slot": "1",
            "type": "t_uint256"
          },
          {
            "astId": 44,
            "contract": "contracts/OpticGov.sol:OpticGov",
            "label": "fundsReleased",
            "offset": 0,
            "slot": "2",
            "type": "t_uint256"
          },
          {
            "astId": 46,
            "contract": "contracts/OpticGov.sol:OpticGov",
            "label": "milestoneCount",
            "offset": 0,
            "slot": "3",
            "type": "t_uint256"
          },
          {
            "astId": 50,
            "contract": "contracts/OpticGov.sol:OpticGov",
            "label": "milestones",
            "offset": 0,
            "slot": "4",
            "type": "t_array(t_struct(Milestone)38_storage)dyn_storage"
          }
        ],
        "numberOfBytes": "160"
      },
      "t_uint256": {
        "encoding": "inplace",
        "label": "uint256",
        "numberOfBytes": "32"
      }
    }
  }
}